{
  "_format": "hh-sol-artifact-1",
  "contractName": "Reward",
  "sourceName": "contracts/Reward.sol",
  "abi": [
    {
      "inputs": [
        {
          "internalType": "address",
          "name": "_tokenAddress",
          "type": "address"
        }
      ],
      "stateMutability": "nonpayable",
      "type": "constructor"
    },
    {
      "anonymous": false,
      "inputs": [
        {
          "indexed": true,
          "internalType": "address",
          "name": "user",
          "type": "address"
        },
        {
          "indexed": false,
          "internalType": "uint256",
          "name": "amount",
          "type": "uint256"
        }
      ],
      "name": "Withdrawal",
      "type": "event"
    },
    {
      "inputs": [],
      "name": "token",
      "outputs": [
        {
          "internalType": "contract IERC20",
          "name": "",
          "type": "address"
        }
      ],
      "stateMutability": "view",
      "type": "function"
    },
    {
      "inputs": [
        {
          "internalType": "uint256",
          "name": "amount",
          "type": "uint256"
        }
      ],
      "name": "withdraw",
      "outputs": [],
      "stateMutability": "payable",
      "type": "function"
    }
  ],
  "bytecode": "0x608060405234801561001057600080fd5b50604051610762380380610762833981810160405281019061003291906100db565b806000806101000a81548173ffffffffffffffffffffffffffffffffffffffff021916908373ffffffffffffffffffffffffffffffffffffffff16021790555050610108565b600080fd5b600073ffffffffffffffffffffffffffffffffffffffff82169050919050565b60006100a88261007d565b9050919050565b6100b88161009d565b81146100c357600080fd5b50565b6000815190506100d5816100af565b92915050565b6000602082840312156100f1576100f0610078565b5b60006100ff848285016100c6565b91505092915050565b61064b806101176000396000f3fe6080604052600436106100295760003560e01c80632e1a7d4d1461002e578063fc0c546a1461004a575b600080fd5b610048600480360381019061004391906102e3565b610075565b005b34801561005657600080fd5b5061005f610284565b60405161006c919061038f565b60405180910390f35b600081116100b8576040517f08c379a00000000000000000000000000000000000000000000000000000000081526004016100af9061042d565b60405180910390fd5b8060008054906101000a900473ffffffffffffffffffffffffffffffffffffffff1673ffffffffffffffffffffffffffffffffffffffff166370a08231306040518263ffffffff1660e01b8152600401610112919061046e565b602060405180830381865afa15801561012f573d6000803e3d6000fd5b505050506040513d601f19601f82011682018060405250810190610153919061049e565b1015610194576040517f08c379a000000000000000000000000000000000000000000000000000000000815260040161018b9061053d565b60405180910390fd5b60008054906101000a900473ffffffffffffffffffffffffffffffffffffffff1673ffffffffffffffffffffffffffffffffffffffff1663a9059cbb33836040518363ffffffff1660e01b81526004016101ef92919061056c565b6020604051808303816000875af115801561020e573d6000803e3d6000fd5b505050506040513d601f19601f8201168201806040525081019061023291906105cd565b503373ffffffffffffffffffffffffffffffffffffffff167f7fcf532c15f0a6db0bd6d0e038bea71d30d808c7d98cb3bf7268a95bf5081b658260405161027991906105fa565b60405180910390a250565b60008054906101000a900473ffffffffffffffffffffffffffffffffffffffff1681565b600080fd5b6000819050919050565b6102c0816102ad565b81146102cb57600080fd5b50565b6000813590506102dd816102b7565b92915050565b6000602082840312156102f9576102f86102a8565b5b6000610307848285016102ce565b91505092915050565b600073ffffffffffffffffffffffffffffffffffffffff82169050919050565b6000819050919050565b600061035561035061034b84610310565b610330565b610310565b9050919050565b60006103678261033a565b9050919050565b60006103798261035c565b9050919050565b6103898161036e565b82525050565b60006020820190506103a46000830184610380565b92915050565b600082825260208201905092915050565b7f5769746864726177616c20616d6f756e74206d7573742062652067726561746560008201527f72207468616e207a65726f2e0000000000000000000000000000000000000000602082015250565b6000610417602c836103aa565b9150610422826103bb565b604082019050919050565b600060208201905081810360008301526104468161040a565b9050919050565b600061045882610310565b9050919050565b6104688161044d565b82525050565b6000602082019050610483600083018461045f565b92915050565b600081519050610498816102b7565b92915050565b6000602082840312156104b4576104b36102a8565b5b60006104c284828501610489565b91505092915050565b7f496e73756666696369656e7420636f6e74726163742062616c616e636520666f60008201527f72207769746864726177616c2e00000000000000000000000000000000000000602082015250565b6000610527602d836103aa565b9150610532826104cb565b604082019050919050565b600060208201905081810360008301526105568161051a565b9050919050565b610566816102ad565b82525050565b6000604082019050610581600083018561045f565b61058e602083018461055d565b9392505050565b60008115159050919050565b6105aa81610595565b81146105b557600080fd5b50565b6000815190506105c7816105a1565b92915050565b6000602082840312156105e3576105e26102a8565b5b60006105f1848285016105b8565b91505092915050565b600060208201905061060f600083018461055d565b9291505056fea2646970667358221220bae8af09130695382f39063a7959574dca2526398bdd18ad5d6bf215d45cf6b164736f6c634300081b0033",
  "linkReferences": {},
  "deployedLinkReferences": {}
}